{
  "_format": "hh-sol-artifact-1",
  "contractName": "WeirdPortal",
  "sourceName": "contracts/WeirdPortal.sol",
  "abi": [
    {
      "inputs": [],
      "stateMutability": "payable",
      "type": "constructor"
    },
    {
      "anonymous": false,
      "inputs": [
        {
          "indexed": true,
          "internalType": "address",
          "name": "from",
          "type": "address"
        },
        {
          "indexed": false,
          "internalType": "uint256",
          "name": "timestamp",
          "type": "uint256"
        },
        {
          "indexed": false,
          "internalType": "string",
          "name": "message",
          "type": "string"
        }
      ],
      "name": "newGreeting",
      "type": "event"
    },
    {
      "inputs": [],
      "name": "getAllGreetings",
      "outputs": [
        {
          "components": [
            {
              "internalType": "address",
              "name": "chum",
              "type": "address"
            },
            {
              "internalType": "uint256",
              "name": "timestamp",
              "type": "uint256"
            },
            {
              "internalType": "string",
              "name": "message",
              "type": "string"
            }
          ],
          "internalType": "struct WeirdPortal.Greeting[]",
          "name": "",
          "type": "tuple[]"
        }
      ],
      "stateMutability": "view",
      "type": "function"
    },
    {
      "inputs": [],
      "name": "getTotalGreetings",
      "outputs": [
        {
          "internalType": "uint256",
          "name": "",
          "type": "uint256"
        }
      ],
      "stateMutability": "view",
      "type": "function"
    },
    {
      "inputs": [
        {
          "internalType": "string",
          "name": "_message",
          "type": "string"
        }
      ],
      "name": "greeting",
      "outputs": [],
      "stateMutability": "nonpayable",
      "type": "function"
    },
    {
      "inputs": [
        {
          "internalType": "address",
          "name": "",
          "type": "address"
        }
      ],
      "name": "lastGreetingAt",
      "outputs": [
        {
          "internalType": "uint256",
          "name": "",
          "type": "uint256"
        }
      ],
      "stateMutability": "view",
      "type": "function"
    }
  ],
  "bytecode": "0x60806040526200004f6040518060400160405280601681526020017f486579206d6f6d2c2049276d20616c69766521203a44000000000000000000008152506200007760201b620006811760201c565b606444426200005f91906200017c565b6200006b9190620001e6565b600181905550620002dc565b62000117816040516024016200008e9190620002b8565b6040516020818303038152906040527f41304fac000000000000000000000000000000000000000000000000000000007bffffffffffffffffffffffffffffffffffffffffffffffffffffffff19166020820180517bffffffffffffffffffffffffffffffffffffffffffffffffffffffff83818316178352505050506200011a60201b60201c565b50565b60008151905060006a636f6e736f6c652e6c6f679050602083016000808483855afa5050505050565b6000819050919050565b7f4e487b7100000000000000000000000000000000000000000000000000000000600052601160045260246000fd5b6000620001898262000143565b9150620001968362000143565b9250828201905080821115620001b157620001b06200014d565b5b92915050565b7f4e487b7100000000000000000000000000000000000000000000000000000000600052601260045260246000fd5b6000620001f38262000143565b9150620002008362000143565b925082620002135762000212620001b7565b5b828206905092915050565b600081519050919050565b600082825260208201905092915050565b60005b838110156200025a5780820151818401526020810190506200023d565b60008484015250505050565b6000601f19601f8301169050919050565b600062000284826200021e565b62000290818562000229565b9350620002a28185602086016200023a565b620002ad8162000266565b840191505092915050565b60006020820190508181036000830152620002d4818462000277565b905092915050565b61149280620002ec6000396000f3fe608060405234801561001057600080fd5b506004361061004c5760003560e01c80633f15aa3414610051578063572df7761461006f5780638490baec1461009f578063f8194e48146100bd575b600080fd5b6100596100d9565b6040516100669190610b16565b60405180910390f35b61008960048036038101906100849190610b78565b61022a565b6040516100969190610bb4565b60405180910390f35b6100a7610242565b6040516100b49190610bb4565b60405180910390f35b6100d760048036038101906100d29190610d04565b61028d565b005b60606002805480602002602001604051908101604052809291908181526020016000905b8282101561022157838290600052602060002090600302016040518060600160405290816000820160009054906101000a900473ffffffffffffffffffffffffffffffffffffffff1673ffffffffffffffffffffffffffffffffffffffff1673ffffffffffffffffffffffffffffffffffffffff1681526020016001820154815260200160028201805461019090610d7c565b80601f01602080910402602001604051908101604052809291908181526020018280546101bc90610d7c565b80156102095780601f106101de57610100808354040283529160200191610209565b820191906000526020600020905b8154815290600101906020018083116101ec57829003601f168201915b505050505081525050815260200190600101906100fd565b50505050905090565b60036020528060005260406000206000915090505481565b60006102856040518060400160405280601081526020017f546f74616c206772656574696e6773200000000000000000000000000000000081525060005461071a565b600054905090565b4261012c600360003373ffffffffffffffffffffffffffffffffffffffff1673ffffffffffffffffffffffffffffffffffffffff168152602001908152602001600020546102db9190610ddc565b1061031b576040517f08c379a000000000000000000000000000000000000000000000000000000000815260040161031290610e6d565b60405180910390fd5b42600360003373ffffffffffffffffffffffffffffffffffffffff1673ffffffffffffffffffffffffffffffffffffffff1681526020019081526020016000208190555060008081548092919061037190610e8d565b91905055506103b66040518060400160405280601181526020017f252073656e642061206d6573736167652000000000000000000000000000000081525033836107b6565b600260405180606001604052803373ffffffffffffffffffffffffffffffffffffffff16815260200142815260200183815250908060018154018082558091505060019003906000526020600020906003020160009091909190915060008201518160000160006101000a81548173ffffffffffffffffffffffffffffffffffffffff021916908373ffffffffffffffffffffffffffffffffffffffff1602179055506020820151816001015560408201518160020190816104789190611081565b5050506064600154444261048c9190610ddc565b6104969190610ddc565b6104a09190611182565b6001819055506104e76040518060400160405280601781526020017f52616e646f6d20232067656e6572617465643a2025642000000000000000000081525060015461071a565b60326001541161062e576105306040518060400160405280600881526020017f257320776f6e212000000000000000000000000000000000000000000000000081525033610855565b60006611c37937e0800090504781111561057f576040517f08c379a000000000000000000000000000000000000000000000000000000000815260040161057690611225565b60405180910390fd5b60003373ffffffffffffffffffffffffffffffffffffffff16826040516105a590611276565b60006040518083038185875af1925050503d80600081146105e2576040519150601f19603f3d011682016040523d82523d6000602084013e6105e7565b606091505b505090508061062b576040517f08c379a0000000000000000000000000000000000000000000000000000000008152600401610622906112fd565b60405180910390fd5b50505b3373ffffffffffffffffffffffffffffffffffffffff167f87ce80b58fbbebcd4b5ce77e4771a3306161efef67b222c48ff3213b1d1c3a594283604051610676929190611356565b60405180910390a250565b610717816040516024016106959190611386565b6040516020818303038152906040527f41304fac000000000000000000000000000000000000000000000000000000007bffffffffffffffffffffffffffffffffffffffffffffffffffffffff19166020820180517bffffffffffffffffffffffffffffffffffffffffffffffffffffffff83818316178352505050506108f1565b50565b6107b282826040516024016107309291906113a8565b6040516020818303038152906040527fb60e72cc000000000000000000000000000000000000000000000000000000007bffffffffffffffffffffffffffffffffffffffffffffffffffffffff19166020820180517bffffffffffffffffffffffffffffffffffffffffffffffffffffffff83818316178352505050506108f1565b5050565b6108508383836040516024016107ce939291906113e7565b6040516020818303038152906040527fe0e9ad4f000000000000000000000000000000000000000000000000000000007bffffffffffffffffffffffffffffffffffffffffffffffffffffffff19166020820180517bffffffffffffffffffffffffffffffffffffffffffffffffffffffff83818316178352505050506108f1565b505050565b6108ed828260405160240161086b92919061142c565b6040516020818303038152906040527f319af333000000000000000000000000000000000000000000000000000000007bffffffffffffffffffffffffffffffffffffffffffffffffffffffff19166020820180517bffffffffffffffffffffffffffffffffffffffffffffffffffffffff83818316178352505050506108f1565b5050565b60008151905060006a636f6e736f6c652e6c6f679050602083016000808483855afa5050505050565b600081519050919050565b600082825260208201905092915050565b6000819050602082019050919050565b600073ffffffffffffffffffffffffffffffffffffffff82169050919050565b600061097182610946565b9050919050565b61098181610966565b82525050565b6000819050919050565b61099a81610987565b82525050565b600081519050919050565b600082825260208201905092915050565b60005b838110156109da5780820151818401526020810190506109bf565b60008484015250505050565b6000601f19601f8301169050919050565b6000610a02826109a0565b610a0c81856109ab565b9350610a1c8185602086016109bc565b610a25816109e6565b840191505092915050565b6000606083016000830151610a486000860182610978565b506020830151610a5b6020860182610991565b5060408301518482036040860152610a7382826109f7565b9150508091505092915050565b6000610a8c8383610a30565b905092915050565b6000602082019050919050565b6000610aac8261091a565b610ab68185610925565b935083602082028501610ac885610936565b8060005b85811015610b045784840389528151610ae58582610a80565b9450610af083610a94565b925060208a01995050600181019050610acc565b50829750879550505050505092915050565b60006020820190508181036000830152610b308184610aa1565b905092915050565b6000604051905090565b600080fd5b600080fd5b610b5581610966565b8114610b6057600080fd5b50565b600081359050610b7281610b4c565b92915050565b600060208284031215610b8e57610b8d610b42565b5b6000610b9c84828501610b63565b91505092915050565b610bae81610987565b82525050565b6000602082019050610bc96000830184610ba5565b92915050565b600080fd5b600080fd5b7f4e487b7100000000000000000000000000000000000000000000000000000000600052604160045260246000fd5b610c11826109e6565b810181811067ffffffffffffffff82111715610c3057610c2f610bd9565b5b80604052505050565b6000610c43610b38565b9050610c4f8282610c08565b919050565b600067ffffffffffffffff821115610c6f57610c6e610bd9565b5b610c78826109e6565b9050602081019050919050565b82818337600083830152505050565b6000610ca7610ca284610c54565b610c39565b905082815260208101848484011115610cc357610cc2610bd4565b5b610cce848285610c85565b509392505050565b600082601f830112610ceb57610cea610bcf565b5b8135610cfb848260208601610c94565b91505092915050565b600060208284031215610d1a57610d19610b42565b5b600082013567ffffffffffffffff811115610d3857610d37610b47565b5b610d4484828501610cd6565b91505092915050565b7f4e487b7100000000000000000000000000000000000000000000000000000000600052602260045260246000fd5b60006002820490506001821680610d9457607f821691505b602082108103610da757610da6610d4d565b5b50919050565b7f4e487b7100000000000000000000000000000000000000000000000000000000600052601160045260246000fd5b6000610de782610987565b9150610df283610987565b9250828201905080821115610e0a57610e09610dad565b5b92915050565b600082825260208201905092915050565b7f776169742035206d696e75746573000000000000000000000000000000000000600082015250565b6000610e57600e83610e10565b9150610e6282610e21565b602082019050919050565b60006020820190508181036000830152610e8681610e4a565b9050919050565b6000610e9882610987565b91507fffffffffffffffffffffffffffffffffffffffffffffffffffffffffffffffff8203610eca57610ec9610dad565b5b600182019050919050565b60008190508160005260206000209050919050565b60006020601f8301049050919050565b600082821b905092915050565b600060088302610f377fffffffffffffffffffffffffffffffffffffffffffffffffffffffffffffffff82610efa565b610f418683610efa565b95508019841693508086168417925050509392505050565b6000819050919050565b6000610f7e610f79610f7484610987565b610f59565b610987565b9050919050565b6000819050919050565b610f9883610f63565b610fac610fa482610f85565b848454610f07565b825550505050565b600090565b610fc1610fb4565b610fcc818484610f8f565b505050565b5b81811015610ff057610fe5600082610fb9565b600181019050610fd2565b5050565b601f8211156110355761100681610ed5565b61100f84610eea565b8101602085101561101e578190505b61103261102a85610eea565b830182610fd1565b50505b505050565b600082821c905092915050565b60006110586000198460080261103a565b1980831691505092915050565b60006110718383611047565b9150826002028217905092915050565b61108a826109a0565b67ffffffffffffffff8111156110a3576110a2610bd9565b5b6110ad8254610d7c565b6110b8828285610ff4565b600060209050601f8311600181146110eb57600084156110d9578287015190505b6110e38582611065565b86555061114b565b601f1984166110f986610ed5565b60005b82811015611121578489015182556001820191506020850194506020810190506110fc565b8683101561113e578489015161113a601f891682611047565b8355505b6001600288020188555050505b505050505050565b7f4e487b7100000000000000000000000000000000000000000000000000000000600052601260045260246000fd5b600061118d82610987565b915061119883610987565b9250826111a8576111a7611153565b5b828206905092915050565b7f547279696e6720746f207769746864726177206d6f7265206d6f6e657920746860008201527f616e2074686520636f6e7472616374206861732e000000000000000000000000602082015250565b600061120f603483610e10565b915061121a826111b3565b604082019050919050565b6000602082019050818103600083015261123e81611202565b9050919050565b600081905092915050565b50565b6000611260600083611245565b915061126b82611250565b600082019050919050565b600061128182611253565b9150819050919050565b7f4661696c656420746f207769746864726177206d6f6e65792066726f6d20636f60008201527f6e74726163742e00000000000000000000000000000000000000000000000000602082015250565b60006112e7602783610e10565b91506112f28261128b565b604082019050919050565b60006020820190508181036000830152611316816112da565b9050919050565b6000611328826109a0565b6113328185610e10565b93506113428185602086016109bc565b61134b816109e6565b840191505092915050565b600060408201905061136b6000830185610ba5565b818103602083015261137d818461131d565b90509392505050565b600060208201905081810360008301526113a0818461131d565b905092915050565b600060408201905081810360008301526113c2818561131d565b90506113d16020830184610ba5565b9392505050565b6113e181610966565b82525050565b60006060820190508181036000830152611401818661131d565b905061141060208301856113d8565b8181036040830152611422818461131d565b9050949350505050565b60006040820190508181036000830152611446818561131d565b905061145560208301846113d8565b939250505056fea2646970667358221220979d6d0accfc6f4ba6db776c0e431a75f8ab793b754617b60640b740f99b443664736f6c63430008110033",
  "linkReferences": {},
  "deployedLinkReferences": {}
}